:020000040800F2
:10000000C8180020050800080D0800080F0800089F
:100010001108000813080008150800080000000077
:10002000000000000000000000000000350700088C
:100030001908000800000000CD070008DD070008CF
:100040001F0800081F0800081F0800081F080008F4
:100050001F0800081F0800081F0800081F080008E4
:100060001F0800081F0800081F0800081F080008D4
:100070001F0800081F0800081F0800081F080008C4
:100080001F0800081F0800081F0800081F080008B4
:100090001F0800081F0800081F0800081F080008A4
:1000A0001F0800081F0800081F0800081F08000894
:1000B0001F08000800000000000000001F080008E2
:1000C0001F08000800000000000000001F080008D2
:1000D000000000001F0800081F08000800000000C2
:1000E0001F0800081F0800080000000000000000B2
:1000F0000000000000000000000000000000000000
:100100000000000000000000000000001F080008C0
:1001100000000000000000001F0800081F08000881
:100120001F0800081F0800081F0800081F08000813
:100130001F08000800000000000000000000000090
:100140001F0800081F0800081F0800081F080008F3
:100150001F0800081F0800081F0800081F080008E3
:100160001F0800081F0800081F0800080000000002
:100170001F0800081F080008000000000000000021
:100180001F0800081F0800081F080008DFF80CD02F
:1001900000F0C2FB004800476D2A0008C818002084
:1001A0000246D2E84F0FC2E8431F03B1F9E7704798
:1001B000024652E8000F40EA010042E8000303B1A2
:1001C000F7E7704710B5024652E8000F20EA010435
:1001D00042E8004303B1F7E710BD10B5024652E80C
:1001E000000F00EA01048C4203D0BFF32F8F0020E0
:1001F00010BD20EA010442E8004303B1EFE710BD5F
:1002000010B5024652E8000F084203D1BFF32F8F0A
:10021000002010BD20EA010442E8004303B1F1E7E9
:1002200010BD024652E8000F411C42E8001303B122
:10023000F8E7704710B50246D2E85F0F814202D856
:10024000BFF32F8F10BD441CC2E8534F03B1F3E737
:1002500010BD10B50246D2E85F0F441CA14200D881
:100260000024C2E8534F03B1F5E710BD024652E83F
:10027000000F411E42E8001303B1F8E77047024641
:1002800052E8000F10B9BFF32F8F7047411E42E8AC
:10029000001303B1F4E770470246D2E85F0F10B9CC
:1002A000BFF32F8F7047411EC2E8531F03B1F4E71D
:1002B0007047024652E8000F10B9BFF32F8F704706
:1002C000016842E8001303B1F4E7704702680A606E
:1002D000BFF35F8F50E8002F0B689342F6D140E8E0
:1002E000001303B1F2E770470246D2E84F0FC2E8AD
:1002F000431F03B1F9E77047024652E8000F40EA96
:10030000010042E8000303B1F7E7704710B5024669
:1003100052E8000F20EA010442E8004303B1F7E786
:1003200010BD10B5024652E8000F00EA01048C42ED
:1003300003D0BFF32F8F002010BD20EA010442E854
:10034000004303B1EFE710BD10B5024652E8000FBD
:10035000084203D1BFF32F8F002010BD20EA010413
:1003600042E8004303B1F1E710BD024652E8000F36
:10037000411C42E8001303B1F8E7704710B502468C
:10038000D2E85F0F814202D8BFF32F8F10BD441C0B
:10039000C2E8534F03B1F3E710BD10B50246D2E8EF
:1003A0005F0F441CA14200D80024C2E8534F03B1A0
:1003B000F5E710BD024652E8000F411E42E8001367
:1003C00003B1F8E77047024652E8000F10B9BFF3D7
:1003D0002F8F7047411E42E8001303B1F4E77047C6
:1003E0000246D2E85F0F10B9BFF32F8F7047411E4E
:1003F000C2E8531F03B1F4E77047024652E8000F0A
:1004000010B9BFF32F8F7047016842E8001303B1A2
:10041000F4E7704702680A60BFF35F8F50E8002F6F
:100420000B689342F6D140E8001303B1F2E770473E
:100430000246D2E84F0FC2E8431F03B1F9E7704705
:10044000024652E8000F40EA010042E8000303B10F
:10045000F7E7704710B5024652E8000F20EA0104A2
:1004600042E8004303B1F7E710BD10B5024652E879
:10047000000F00EA01048C4203D0BFF32F8F00204D
:1004800010BD20EA010442E8004303B1EFE710BDCC
:1004900010B5024652E8000F084203D1BFF32F8F78
:1004A000002010BD20EA010442E8004303B1F1E757
:1004B00010BD024652E8000F411C42E8001303B190
:1004C000F8E7704710B50246D2E85F0F814202D8C4
:1004D000BFF32F8F10BD441CC2E8534F03B1F3E7A5
:1004E00010BD10B50246D2E85F0F441CA14200D8EF
:1004F0000024C2E8534F03B1F5E710BD024652E8AD
:10050000000F411E42E8001303B1F8E770470246AE
:1005100052E8000F10B9BFF32F8F7047411E42E819
:10052000001303B1F4E770470246D2E85F0F10B939
:10053000BFF32F8F7047411EC2E8531F03B1F4E78A
:100540007047024652E8000F10B9BFF32F8F704773
:10055000016842E8001303B1F4E7704702680A60DB
:10056000BFF35F8F50E8002F0B689342F6D140E84D
:10057000001303B1F2E770470246D2E84F0FC2E81A
:10058000431F03B1F9E77047024652E8000F40EA03
:10059000010042E8000303B1F7E7704710B50246D7
:1005A00052E8000F20EA010442E8004303B1F7E7F4
:1005B00010BD10B5024652E8000F00EA01048C425B
:1005C00003D0BFF32F8F002010BD20EA010442E8C2
:1005D000004303B1EFE710BD10B5024652E8000F2B
:1005E000084203D1BFF32F8F002010BD20EA010481
:1005F00042E8004303B1F1E710BD024652E8000FA4
:10060000411C42E8001303B1F8E7704710B50246F9
:10061000D2E85F0F814202D8BFF32F8F10BD441C78
:10062000C2E8534F03B1F3E710BD10B50246D2E85C
:100630005F0F441CA14200D80024C2E8534F03B10D
:10064000F5E710BD024652E8000F411E42E80013D4
:1006500003B1F8E77047024652E8000F10B9BFF344
:100660002F8F7047411E42E8001303B1F4E7704733
:100670000246D2E85F0F10B9BFF32F8F7047411EBB
:10068000C2E8531F03B1F4E77047024652E8000F77
:1006900010B9BFF32F8F7047016842E8001303B110
:1006A000F4E7704702680A60BFF35F8F50E8002FDD
:1006B0000B689342F6D140E8001303B1F2E77047AC
:1006C0000246D2E84F0F411CC2E8431F03B1F8E7CE
:1006D0007047024652E8000F411C42E8001303B184
:1006E000F8E77047024652E8000F42E8001303B1F2
:1006F000F9E77047024652E8000F830103D3BFF3C6
:100700002F8F0020704700F00040084342E80003AC
:1007100003B1F0E77047024652E8000F800103D2B0
:10072000BFF32F8F0020704742E8001303B1F3E7B7
:10073000012070471EF0040F0CBFEFF30880EFF3A9
:100740000980816911F8021C91BB01B590E80F1076
:10075000E047BDE800508CE80300244B93E8060016
:10076000914208BF704741B91EF0100F10D12049C7
:10077000086820F0010008600AE02CE9F00F1EF084
:10078000100F08BF2CED108AC1F838C081F822E0A4
:100790001A6092F82210906B61F0FF0E1EF0100F9D
:1007A00008BF00F029B8B0E8F00F80F3098870475F
:1007B000104A13689942FAD801B552F821C00FC8FF
:1007C000E047BDE80050CCF80000704701B502F0EA
:1007D000F5FBBDE80140EFF3098CBEE701B502F07F
:1007E00041FEBDE80140EFF3098CB6E77813002025
:1007F00034EF00E0943D0008B0EC088AB0EC08CA81
:10080000FFF7D1BF0648804706480047FEE7FEE7EE
:10081000FEE7FEE7FEE7FEE7FEE7FEE7FEE7FEE7B0
:100820005D2400088D0100082DE9F05F05460020D9
:1008300092469B4688460646814640241BE0284651
:1008400041464746224600F056F853465A46C01ADB
:10085000914110D311461846224600F03DF82D1A5A
:1008600067EB01084F4622460120002100F034F8D2
:1008700017EB00094E41201EA4F10104DFDC4846BD
:1008800031462A46434600F000B830BCBDE8C09F60
:1008900040EA01039B0703D009E008C9121F08C002
:1008A000042AFAD203E011F8013B00F8013B521E82
:1008B000F9D27047D2B201E000F8012B491EFBD2F9
:1008C00070470022F6E710B513460A46044619465B
:1008D000FFF7F0FF204610BD202A04DB203A00FA83
:1008E00002F1002070479140C2F1200320FA03F387
:1008F000194390407047202A04DB203A21FA02F085
:100900000021704721FA02F3D040C2F12002914049
:100910000843194670470000064C074D06E0E068A2
:1009200040F0010394E8070098471034AC42F6D336
:10093000FFF730FCA43E0008C43E000830B58C1818
:1009400010F8012B12F00F0301D110F8013B12092E
:1009500006D110F8012B03E010F8015B01F8015BF0
:100960005B1EF9D101E001F8013B521EFBD1A1420F
:10097000E6D3002030BD00000749097851B106498F
:10098000C0F3C6228039C0F30220895CC14001F067
:10099000010070470020704780F800202DE9F041E9
:1009A0000A4D05F11806AF6900F08AF904460146C0
:1009B0003046FFF797FEB842F5D1844203D2034890
:1009C0001030FFF786FE2046BDE8F08180F8002059
:1009D00070B514460D460646FFF7CEFF88B1FFF707
:1009E000DDFF0146B2B2EFF3058008B14FF40020FD
:1009F000104323462A46BDE8704040F0407000F0A6
:100A00003BB8012070BD00002DE9F047984617461D
:100A100089460446DDF820A0FFF7AEFF48B1FFF796
:100A2000BDFF0646A0B2EFF3058129B14FF40025C2
:100A300003E00120BDE8F087002505430C48FFF7DF
:100A40003FFE4FF4E02101EA0044254345F0807069
:100A50003B464A46314600F00FF80028EAD00548E8
:100A60005346204342463146BDE8F04700F004B803
:100A700081F80020010000022DE9FF5F8B464FF056
:100A8000805000EADB08400007259A469146410065
:100A900000EA990701EA5A062048FFF71AFE0146C4
:100AA00000F07F021E48C90900EB02144FF47000E9
:100AB00000EA01510098084340EA080038433043F7
:100AC00040F0406104F10C00FFF714FE41011CD519
:100AD00080F0044101F000402BF00042024322600C
:100AE00029F00042024362602AF00042024304F10E
:100AF0000C00A260FFF70FFE48B10848001DFFF789
:100B0000E8FD012004B000F00DB86D1EC4D103480B
:100B10000830FFF7DEFD0020F4E7000084F8002035
:100B200000F0002030BCBDE8C09F00002DE9F04778
:100B30008146FF2901D2FF2A02D30020BDE8F087B9
:100B40000024104D20464FF0010A0AFA00F35646E1
:100B500013EA090F0FD00B46B2460AE004EBD306A6
:100B600003F00708AF5D0AFA08FC47EA0C07AF5527
:100B70005B1C9342F2D9401C20340428E5D30120A9
:100B8000DCE7000000F800202DE9F0473C4C8846E7
:100B90008146002525708021A4F18000FFF791FE99
:100BA000384B4FF6FF761822304641F2210700BF3E
:100BB00013F8011B80EA01205FF008015FEA004C96
:100BC00006EA400000D57840491EF7D1521EEFD109
:100BD0002D4A236A0121934201D0226202E06288F9
:100BE000824202D06080E16137E0E069401CE06150
:100BF000012832D0254B002003EB0011CA685601B2
:100C000002D522F04062CA60401C8028F4D3E0691B
:100C100001282BD000F060F80646DEB1FE2200214C
:100C20004846FFF783FFEF2211460F20FFF77EFFB4
:100C3000FE2211460420FFF779FFFFF7AFFE0146C1
:100C400000231348E269FFF717FFB8F1000F01D046
:100C500000F020F83046BDE8F08765706560A5605B
:100C60004FF400610948E560FFF72BFE00F034F80F
:100C7000061E01D000F02AF8C4E905052561CCE77D
:100C800080F80020983D00086B27A5E100F00020C7
:100C900000FF0003084810B5017809B1012010BD1C
:100CA00001210170FFF77AFE014600231A4603482E
:100CB000FFF7E2FEF2E7000080F8002001FF0003EA
:100CC0000148406870470000001000E001480068DB
:100CD00070470000601300200548016841F08071F2
:100CE00001600448016841F0010101600120704782
:100CF000FCED00E0001000E0014600220148FFF793
:100D000067BE000005F30200014600220148FFF71C
:100D10005FBE00000DF50200014600224FF4714055
:100D2000FFF756BE002211460148FFF751BE0000F2
:100D300001F10100002211460148FFF749BE000001
:100D400002F10200002211460148FFF741BE0000F7
:100D500007F10100002211460148FFF739BE0000EB
:100D600008F1020008B5009313460A4601460248FE
:100D7000FFF74AFE08BD000001F002000A460146E6
:100D80000148FFF725BE000004F0020008B500236B
:100D9000009313460A4601460148FFF735FE08BD99
:100DA00005F0020008B5009313460A4601460248C2
:100DB000FFF72AFE08BD000003F0020008B500237B
:100DC000009313460A4601460148FFF71DFE08BD81
:100DD00002F0020008B50023009313460A460146BC
:100DE0004FF43C30FFF710FE08BD00000146002222
:100DF0000148FFF7EDBD000008F902000A46014670
:100E00000148FFF7E5BD000003FA02000A4601466B
:100E10004FF47A40FFF7DCBD08B5009313460A464D
:100E200001460248FFF7F0FD08BD00000CFA010082
:100E300008B50023009313460A4601460148FFF710
:100E4000E3FD08BD0DFA0200014600220148FFF74C
:100E5000BFBD00000EFA02000A4601460148FFF736
:100E6000B7BD000009FA02000A4601460148FFF733
:100E7000AFBD00000AFA020008B500230093134634
:100E80000A4601460148FFF7BFFD08BD01FA01000F
:100E90000A4601460148FFF79BBD00000BFA02001D
:100EA0000A4601460148FFF793BD000010FA020010
:100EB00008B5009313460A4601460248FFF7A4FD11
:100EC00008BD000006FA010008B500230093134690
:100ED0000A4601460148FFF797FD08BD07FA0200E0
:100EE000014600220148FFF773BD000008FA020026
:100EF0000A4601460148FFF76BBD00000FFA0200E9
:100F0000014600220148FFF763BD000008F7020018
:100F10000A4601460148FFF75BBD000009F70200E1
:100F20000A4601460148FFF753BD00000CF70200D6
:100F3000014600220148FFF74BBD000008F80200FF
:100F40000A4601460148FFF743BD000016F20300C0
:100F500012B10146034803E00A4601460148293818
:100F6000FFF736BD2CF20200014600220148FFF7D0
:100F70002FBD00001CF202000A4601464FF47240E9
:100F8000FFF726BD002211460148FFF721BD0000F2
:100F90001AF2010008B5009313460A4601460248BA
:100FA000FFF732FD08BD000009F4020001460022EF
:100FB0000148FFF70DBD000008F4020001460022C1
:100FC0000148FFF705BD000015F2020008B5002337
:100FD000009313460A4601460148FFF715FD08BD78
:100FE00001F20100014600220148FFF7F1BC0000B8
:100FF00018F20300014600220148FFF7E9BC000097
:1010000019F202000A4601460148FFF7E1BC000060
:1010100017F203000A4601460148FFF7D9BC000059
:1010200001F602002DE9F84FDFF870B10023012727
:101030004FF0030A4FF00F090BF1040EA7E000BFB9
:1010400007FA03F6324070D04C68022C01D0122C03
:1010500010D1DC0800EB8408D8F820405D074FEA87
:10106000D56C09FA0CF5AC430D6905FA0CF525436E
:10107000C8F82050D0F800805D0091F804C00AFA4A
:1010800005F40CF0030C28EA04080CFA05FC4CEA01
:10109000080CC0F800C0D1F804C0BCF1010F08D0A2
:1010A000BCF1020F05D0BCF1110F02D0BCF1120F40
:1010B00016D1D0F808C0D1F80C802CEA040C08FA3C
:1010C00005F848EA0C08C0F80880D0F804C02CEAFB
:1010D000060C0E79C6F300169E4046EA0C064660E2
:1010E000C668A6438C68AC403443C4604C68E400D6
:1010F0004CD52B4C256E45F001052566246E23F05A
:10110000030504F001040094264C2E19B4689D07D1
:101110004FEA157C09FA0CF5AC43B0F1904F05D0BD
:10112000214DA84204D1012508E02FE0002505E06B
:101130001E4DA84201D1022500E0072505FA0CF555
:101140002543B560DBF800405D464E689443F603E6
:1011500000D514432C60DEF8004075464E68944379
:10116000B60300D514432C600C4D08352C684E682E
:101170009443F60200D514432C60084D0C352C68BE
:101180004E689443B60200D514432C605B1C0A6879
:1011900032FA03F47FF454AF00F00AB800040140BF
:1011A0000010024000000140000400480008004810
:1011B00018BCBDE8E08F0AB1816170478162704759
:1011C00001488068704700005013002010B50024CB
:1011D000032000F063F8002000F008F808B10124B3
:1011E00001E000F025F8204610BD000070B50E4E5D
:1011F00005460024706898B14FF47A71B1FBF0F0A5
:101200000A490968B1FBF0F000F07CFD40B9102DEF
:1012100006D200222946501E00F020F8356000E07A
:101220000124204670BD00005013002060130020F0
:10123000094808B5016E41F001010166016E01F037
:1012400001010091816D41F080518165806D00F058
:101250008050009008BD000000100240F0B40E4B1A
:101260001B680C46C3F30223C3F10705042D00D904
:101270000425191D072901D2002300E0DB1E0126E9
:1012800006FA05F1491E214099409E40761E1640FF
:101290003143F0BC01F08CBB0CED00E0064900F0DE
:1012A000070208684FF6FF03184040EA0220034A8D
:1012B00010430860704700000CED00E00000FA05E4
:1012C0001649B0F5007F0868C0F3412009D0022814
:1012D00005D0086820F4C06040F4806008600020F9
:1012E00070470128FBD0086820F4C06040F400700B
:1012F00008600B483222006850430A4AB0FBF2F003
:10130000401C00E0401E4A69520501D50028F9D171
:1013100048694005E3D50320704700000070004095
:101320006013002040420F000248006800F4C060D3
:1013300070470000007000400248016841F004015D
:1013400001607047001002402DE9F84F0446002765
:1013500000889C4D3E46000515D5E06B60B1B0F5A8
:10136000000F04D0B0F5400F2BD001270AE0E86849
:1013700040F48030E86024E00021201D00F05CFF94
:1013800007001ED03E462068800338D5A86D4FF078
:101390000008C00009D4A86D40F08050A865A86D71
:1013A0004FF0010800F080500090DFF81CA2DAF83E
:1013B000001041F48071CAF80010FFF701FF814668
:1013C00010E0D5F88800E16B20F440000843C5F830
:1013D0008800D8E7FFF7F4FEA0EB0900022801D946
:1013E000032704E0DAF80000C005F3D5EFB33E466A
:1013F000B8F1000F03D0A86D20F08050A8652078C8
:10140000C00707D0D5F88800216A20F00300084300
:10141000C5F888002078800707D5D5F88800616A6C
:1014200020F00C000843C5F888002078800607D516
:10143000D5F88800A16A20F440600843C5F8880008
:101440002088800507D5D5F88800616B20F44020FE
:101450000843C5F888002088400509D5D5F88800DC
:10146000A16B20F44010084300E02EE0C5F888008E
:101470002078400607D5D5F88800E16A20F440506E
:101480000843C5F888002088C00507D5D5F888002E
:10149000216B20F440300843C5F8880020884FF0C5
:1014A000006780044FF080684ED5D5F88800216C25
:1014B00020F040600843C5F88800206CB8423BD15A
:1014C000E86840F48010E8603EE0D5F8900010F441
:1014D000407014D0216D814211D0D5F89000D5F81C
:1014E000901020F4407041F48031C5F89010D5F888
:1014F000901021F48031C5F89010C5F89000C00715
:1015000011D0FFF75DFE074641F2883907E000BFC2
:10151000FFF756FEC11B494501D9032668E7D5F8F8
:1015200090008007F4D5D5F89000216D20F440702C
:101530000843C5F890005BE7404505D10121201D17
:1015400000F07AFE00B106462068400317D5D5F8B2
:101550008800616C20F040600843C5F88800606C2A
:10156000B84204D1E86840F48010E86007E04045E4
:1015700005D10121201D00F05FFE00B10646208844
:10158000400411D5D5F88800A16C20F040500843E4
:10159000C5F88800A06CB0F1805F05D10221201D44
:1015A00000F04AFE00B106462088000406D555F832
:1015B000880FE16C20F0804008432860304600F03E
:1015C00005B80000001002400070004018BCBDE8E3
:1015D000E08F00002DE9F0470F46050058D0404E3F
:1015E000306800F00700B84209D2306820F00700E8
:1015F00038433060306800F00700B84248D128789E
:10160000384CC0072CD06868032811D0022812D0AB
:10161000216898B1490500293ADAA16821F003014F
:101620000143A160FFF7CCFD804641F2883910E00C
:1016300021688901EFE721688903ECE78907EAE778
:10164000FFF7BEFDA0EB0801494502D90320BDE824
:10165000F087A068696800F00C00B0EB810FEFD153
:101660002878800705D5A068A96820F0F000084315
:10167000A060306800F00700B8420BD9306820F055
:10168000070038433060306800F00700B84201D0EE
:101690000120DCE72878400705D5A068E96820F438
:1016A000E0600843A0602878000706D5A068296993
:1016B00020F4605040EAC100A06000F03FF8A1684B
:1016C000094AC1F30311515C01F01F01C8400749E9
:1016D000086007480068BDE8F047FFF787BD0000D5
:1016E0000020024000100240B03D000860130020BE
:1016F000501300200548064900688968054AC1F36F
:101700000221515C01F01F01C840704760130020A6
:1017100000100240F03D000805480649006889684D
:10172000054AC1F3C221515C01F01F01C840704756
:101730006013002000100240F03D000870B52549FC
:10174000002318468A68CC6812F00C0204F00306E5
:10175000214C4FEA640509D00C2A05D0042A32D066
:10176000082A00D1284670BD012E10D10B681B0736
:1017700004D4D1F89430C3F3032302E00B68C3F31D
:101780000313164E56F82330DAB10C2AEBD1C86891
:1017900000F00300022818D0032818D01846CA68A1
:1017A000CB68C2F30212C3F306234343521CB3FBBC
:1017B000F2F2C868C0F34160401C4000B2FBF0F098
:1017C00070BD184670BD204670BD2046E7E728462C
:1017D000E5E70000001002400024F400C03D0008CE
:1017E0002DE9F84304006ED0FD4DA86800F00C060A
:1017F000E86800F003072078C00663D576B10C2EA8
:1018000001D1012F0AD0A0690028286878D040F0C3
:1018100001002860FFF7D4FC80465BE02868800761
:1018200002D5A0690028DED0216A2868000703D508
:10183000286800F0F00004E0D5F89400F02202EAF5
:101840001010814216D9084600F08CFD00283AD1CC
:10185000286840F0080028602868216A20F0F0001D
:10186000084328606868E16920F47F4040EA01206D
:10187000686015E0286840F0080028602868216A40
:1018800020F0F000084328606868E16920F47F4098
:1018900040EA01206860206A00F064FD0028D6D18B
:1018A000FFF74CFFA968CF4AC1F30311515C01F067
:1018B0001F01C840CC490860CC480068FFF796FC7F
:1018C00000287DD12DE0C9E0FFF77AFCA0EB0800ED
:1018D000022876D828688007F6D5286840F00800E6
:1018E00028602868216A20F0F000084328606868B2
:1018F000E16920F47F4040EA0120686011E0FFE7E1
:1019000020F001002860FFF75BFC804606E000BF86
:10191000FFF756FCA0EB08000228DAD828688007F9
:10192000F6D42078C00740D0082E18D00C2E01D154
:10193000032F14D06068B0F5803F17D0B0F5A02F0A
:10194000286817D020F480302860286820F4802090
:1019500028606068E0B1FFF733FC804614E0286837
:10196000800322D56068002878D01EE0286840F403
:101970008030EDE740F480202860F7E7FFF720FC97
:10198000A0EB08006428A4D828688003F6D50CE0F2
:10199000FFF716FC804605E0FFF712FCA0EB0800FD
:1019A000642896D828688003F6D4207880073BD531
:1019B000042E11D00C2E01D1022F0DD0E06801E0D1
:1019C00064E1B8E0002828681ED040F480702860E8
:1019D000FFF7F6FB07460CE0286840050CD5E068E9
:1019E0000028C1D008E000BFFFF7EAFBC01B0228B7
:1019F00093D828684005F7D56868217C20F0F85016
:101A000040EA016068600FE020F480702860FFF712
:101A1000D7FB074605E000BFFFF7D2FBC01B02283B
:101A2000B1D828684005F7D42078000729D5606927
:101A30000028D5F8940012D040F00100C5F89400B9
:101A4000FFF7BEFB074604E0FFF7BAFBC01B022806
:101A500071D8D5F894008007F6D512E04CE120F05B
:101A60000100C5F89400FFF7ABFB074605E000BF97
:101A7000FFF7A6FBC01B02285DD8D5F894008007AD
:101A8000F6D42078400766D5A86D0027C00008D49A
:101A9000A86D40F08050A865A86D012700F0805027
:101AA000009053480168C90512D40168814641F489
:101AB00080710160FFF784FB804605E0FFF780FB43
:101AC000A0EB0800022836D8D9F80000C005F5D5EB
:101AD000A068012816D00528D5F8900017D020F06E
:101AE0000100C5F89000D5F8900020F0040000BF78
:101AF000C5F89000A06841F28839C0B1FFF760FBDB
:101B000080460FE0D5F8900040F00100F0E740F08B
:101B10000400C5F89000F5E7FFF752FBA0EB0801C1
:101B2000494508D8D5F890008007F5D50EE0FFF7B5
:101B300047FB804606E07CE0FFF742FBA0EB080194
:101B4000494576D8D5F890008007F5D41FB1A86D27
:101B500020F08050A8652078800628D5606A00288B
:101B6000D5F8980012D040F00100C5F89800FFF7B2
:101B700027FB074605E000BFFFF722FBC01B02283A
:101B800057D8D5F898008007F6D510E020F001006E
:101B9000C5F89800FFF714FB074604E0FFF710FBB9
:101BA000C01B022871D8D5F898008007F6D4A06A27
:101BB000F0B30C2E71D00228286820F080702860C5
:101BC0001AD02868000103D4E86820F00300E86018
:101BD000E86808490840E860FFF7F2FA044657E071
:101BE00000100240B03D0008601300205013002098
:101BF00000700040FFFFEEFEFFF7E2FA064604E049
:101C0000FFF7DEFA801B02283FD828688001F7D44E
:101C1000F4E90B016FF00F0202EB01110843218A76
:101C20004908520402EB4151A26841EA022101E055
:101C300064E02AE00843217D4FF07E42490802EB30
:101C400041610843217B40EAC160E9682C4A1140A8
:101C50000843E860286840F080702860E86840F039
:101C60008070E860FFF7ACFA044604E0FFF7A8FADA
:101C7000001B022809D828688001F7D53EE000BF84
:101C8000FFF79EFA001B022802D90320BDE8F88363
:101C900028688001F4D431E0FFE70128F6D0E86835
:101CA000E26A00F00301914226D1216B00F070023C
:101CB0000901103991421FD1626B00F4FE41B1EB72
:101CC000022F19D194F8382000F07841B1EBC26F9F
:101CD00012D1A18F00F4C00249084905A1F50011F5
:101CE000914209D194F8401000F0C06049084906BB
:101CF000A1F10071814201D00120C7E70020C5E7B2
:101D00008C809D0110B5401EB0F1807F01D3012071
:101D100010BD4FF0E02460610F21601700F048FE15
:101D20000020A06107202061002010BD70B590F850
:101D30003C20012A21D0012480F83C40022280F876
:101D40003D2003685A689D680D4EB34203D122F4CA
:101D500070064A68324322F070060A688968324386
:101D600025F0800529435A600268916080F83D4063
:101D7000002180F83C10084670BD022070BD0000B4
:101D8000002C01402DE9F041044690F83C000D463E
:101D900001283DD0012684F83C60022084F83D00F3
:101DA000AAB3042A46D02068082A55D0D5E90027CE
:101DB000E968036A23F480530362D0F81CC0036A05
:101DC0002CF4407C4CEA07274FF6FF7C27F4704741
:101DD0000CEA013139434FF4204723F4204307EA4A
:101DE00002321A43C16102622068C16921F4406174
:101DF000C1612068C169AA6841EA0221C0F81C10CB
:101E000084F83D60002084F83C00BDE8F08101E0EA
:101E10000220FAE7D5E90012EB68206800F076FBB3
:101E20002068816921F00C01816120688169AA68BC
:101E300011430FE0D5E90012EB68206800F08EFB3B
:101E40002068816921F44061816120688169AA6804
:101E500041EA02218161D3E7D5E9002C2F7B016A99
:101E600021F480710162C169036A21F0030141EA32
:101E70000C0121F0F00C39074FF420674CEA116196
:101E800023F4206307EA02221A43C1610262206838
:101E9000C16921F00C01C1612068C169AA681143C0
:101EA000ACE710B5040003D094F83D0010B107E092
:101EB000012010BD002084F83C00204600F00CF802
:101EC000022084F83D00211D206800F0E9FA01207D
:101ED00084F83D00002010BD10B586B004461421E2
:101EE0006846FEF7EEFC2068B0F1804F1ED1104826
:101EF000816D41F001018165816D01F00101059164
:101F0000C16C41F00101C164C06C694600F0010080
:101F10000590202000900220019000200290039064
:101F2000012004904FF09040FFF77CF806B010BD00
:101F30000010024010B5040002D0606F10B107E03D
:101F4000012010BD002084F87000204600F026F823
:101F5000242060672068016821F0010101602046AB
:101F600000F0DAFB0128ECD0606A10B1204600F0E6
:101F700043FB2068416821F49041416020688168FA
:101F800021F02A0181602068016841F001010160AF
:101F90002046BDE8104000F093BB000010B586B0AD
:101FA000044614216846FEF78CFC134920688842D9
:101FB0001FD11248C16D41F00101C165C16D01F031
:101FC00001010591C16C41F00101C164C06C694619
:101FD00000F0010005900C200090022001900020EC
:101FE000029003200390082004904FF09040FFF7E8
:101FF00019F806B010BD000000800040001002403B
:10200000EFF3108018B9EFF31180002800D0012001
:102010007047EFF3108018B9EFF31180002800D05B
:1020200001207047EFF3108018B9EFF311800028FA
:1020300000D001207047EFF30580002800D0012078
:102040007047EFF30580002800D001207047EFF3C0
:102050000580002800D0012070470000F0B587B04F
:1020600014216846FEF72DFC1D48C16C41F00401A7
:10207000C164C16C01F004010591C16C41F0010122
:10208000C164C16C01F001010591C16C41F0020114
:10209000C164C06C4FF0904600F002000590002231
:1020A00010213046FFF787F80E4F002201213846F5
:1020B000FFF781F81020009001250024CDE901549C
:1020C000694630460394FEF7ADFF0095CDE9015413
:1020D000694638460394FEF7A5FF07B0F0BD00003F
:1020E000001002400004004810B588B000241248D7
:1020F0000594069404940094019402944FF0804156
:102100000394C0E900148460C46004618461FFF733
:10211000C8FE049404A908480694FFF707FE0120AE
:10212000CDE9004002940022694603480394FFF77A
:1021300029FE08B010BD00008814002010B5044628
:102140002830FEF740F950B1E46A05E00121A01CF7
:10215000FEF7CAF820B1A468002CF7D100E00024F3
:10216000204610BD30B4026BB2B10023CC7802E03F
:102170001346526812B1D578A542F9D3C1E90123BB
:102180000AB1916000E0C1620BB1596000E00163E7
:1021900030BC2830FEF7E9B800224A608A60C1628C
:1021A000F5E7D1E901320BB19A6000E0C2628A68BA
:1021B00012B14868506070474968016370474FF03A
:1021C000E0200069704700000748017829B100212C
:1021D000017006494FF0806008604FF0E02001690F
:1021E00041F00101016170475C13002004ED00E043
:1021F0004FF0FF30704700004FF0FF3138B10B4A0D
:102200001268B2FBF0F0401EB0F1807F01D30846A7
:102210007047074AFF2111704FF0E02106220A6142
:1022200048610020886103490870704760130020EE
:1022300023ED00E05C1300202DE9F041444C0546FD
:102240008846E0680026810728680DD0E16801F023
:102250000301814216D1A8B1E0686968C0F3021099
:10226000401C88420ED120E0012804D0022805D06D
:10227000032807D108E02168890701E021684905A2
:10228000002907DB01265FE02168890302D4216869
:102290004903F5E7E1686A686FF00F0321F0730105
:1022A00003EB021211430143E160206820F08060DB
:1022B0002060FEF785FF074605E000BFFEF780FFC0
:1022C000C01B022837D820680001F7D4B8F1000FEE
:1022D00018D0B8F1010F1DD0287D4FF07E41400885
:1022E00001EB4060A96840EA01202169194A1140C8
:1022F00008432061206840F080602060FEF760FFA6
:1023000007461AE0A868297B000240EAC1602169FB
:10231000114AECE7288A1149400801EB4050A968AE
:1023200040EA012021690E4AE1E700BFFEF748FFBD
:10233000C01B022801D9032606E020680001F5D55C
:102340002069A969084320613046BDE8F08100009A
:1023500000100240FF80FFF9FF80FF070000E0FF50
:10236000FF809FFFF8B51C4D06460024A86DC000F5
:1023700002D5FEF7D9FF0DE0A86D40F08050A865AA
:10238000A86D00F080500090FEF7CEFFA96D21F0FF
:102390008051A965B0F5007F04D0802E07D94FF099
:1023A00003040AE0802E08D9A02E01D804E001D150
:1023B000022402E0702E00D101240848016821F0B7
:1023C000070121430160006800F00700A04201D02E
:1023D0000120F8BD0020F8BD00100240002002409E
:1023E00010B5ACB044216846FEF76BFA142126A85C
:1023F000FEF767FA542111A8FEF763FA1420009043
:10240000052002900120002460210690CDE90741BB
:102410000221CDE90A100C9028200D900720CDE96B
:102420000E0168461091FFF7DBF90F20269003207C
:10243000CDE927042994042126A82A94FFF7CAF895
:1024400020201B94119011A8FEF77EFF4FF400701E
:10245000FEF736FFFEF770FF2CB010BD0D48016887
:1024600041F4700101600C48016841F00101016014
:10247000002181600268094B1A4002608214C26028
:10248000026822F48022026081610249C00380391F
:102490000860704788ED00E000100240FFFFF6EA98
:1024A00070B50268164B4FF08046984201D0B0429A
:1024B00003D122F070044A682243124C124D984214
:1024C00005D0B04203D0A04201D0A84203D122F4EB
:1024D0004076CA6832434E6922F08002324302607D
:1024E0008A68C2620A688262984203D0A04201D020
:1024F000A84201D1096901630121416170BD000059
:10250000002C0140004001400044014070B5046AC5
:1025100024F0010404628469056A0E4EB04205D0BD
:10252000B0F1804F02D00C4EB04203D124F003042E
:10253000144301E044F001041A0724F0F00444EAD3
:10254000126225F00A0301F00A0119438261016257
:1025500070BD0000002C01400040014030B5046A0D
:1025600024F0100404628469056A24F4407444EA87
:10257000022222F470444FF6FF7202EA0332224331
:10258000A02425F0A00304EA01111943826101622D
:1025900030BD930707D4D20700F1280001D0FEF721
:1025A00008B8FEF719B8806AD30702D031EA0003F1
:1025B00004D102F0010201400A4300D1002070471B
:1025C00030B50C4C0023626C02E01346D268491B04
:1025D00012B115698D42F8D98360C0E903211AB19F
:1025E0001569691A116190600BB1D86030BD6064E3
:1025F00030BD00006413002090F82410C90706D0F5
:1026000001684A68836A22F400321A434A6090F8EB
:102610002410890706D501684A68C36A22F480320B
:102620001A434A6090F82410490706D501684A68A1
:10263000036B22F480221A434A6090F824100907A1
:1026400006D501684A68436B22F400421A434A6087
:1026500090F82410C90606D501688A68836B22F4B5
:1026600080521A438A6090F82410890606D50168C2
:102670008A68C36B22F400521A438A6090F82410CF
:10268000490611D501684A68036C22F480121A4386
:102690004A60016CB1F5801F06D101684A68436C3D
:1026A00022F4C0021A434A6090F82410090606D5A5
:1026B00001684A68806C22F4002202434A60704735
:1026C000F8B500260446C667FEF77AFD0546206881
:1026D00000686FF07E47000708D52B4600224FF4B4
:1026E00000112046009700F033F960B920680068B7
:1026F00040070AD52B4600224FF480012046009760
:1027000000F026F908B10320F8BD20206067A0671B
:1027100084F870600020F8BD2DE9F041044602689D
:1027200080682369E5691843636900272B431843D0
:102730007E4913687E4D2B40034313602068426836
:10274000E36822F440521A4342602268A0698A4238
:1027500001D0236A1843936823F4306303439360E2
:10276000744A2368744893420DD1D0F8880010F061
:10277000030006D0012838D0022834D0032821D104
:1027800035E001251FE06D4A93420BD1D0F8880057
:1027900010F00C0025D0042827D0082823D00C28BE
:1027A00010D124E08B420DD1D0F8880010F44060A5
:1027B00017D0B0F5806F18D0B0F5006F13D0B0F51A
:1027C000406F14D010255E4800264FF47A728B4279
:1027D00048D175B1022D12D0042D0DD0082D19D17C
:1027E00016E00025EFE70225EDE70425EBE70825D5
:1027F000E9E7FEF77FFF01E0FEF7A0FF88B362681C
:1028000002EB4201814205D8B0EB023F02D803E05F
:102810001046F4E7012774E0DFF8288165B1022D46
:102820000DD0042D14D0082DF4D150084FF47A3176
:10283000401846F1000105E0FEF75CFF0AE0500891
:102840004149F5E70023FDF7EFFFA0F5407154E0A3
:10285000FEF774FF6268010E0302500818187141F8
:10286000F0E74EE0E1694FF6EF78B1F5004F09D09F
:10287000092DCFD2DFE805F034374A0550050505AC
:102880005300C7E7092DC5D2DFE805F0060920058A
:10289000230505052600BDE7FEF72CFF01E0FEF746
:1028A0003BFF4100D4F8040001EB5001B1FBF0F014
:1028B00080B2A0F110014145ACD84FF6F071014053
:1028C000C0F3420001432068C1601AE01F496068FC
:1028D000EAE7FEF733FFE4E74FF4FA616068E3E705
:1028E000FEF708FF01E0FEF717FF0146606801EB05
:1028F000500117E080B2A0F1100141458AD821684B
:10290000C860266638466666BDE8F081616800EBFF
:102910005100B0FBF1F0EDE7FEF710FFE5E760686E
:1029200002EB5001B1FBF0F0E4E700000080004052
:10293000F369FFEF003801400010024000440040FE
:102940000024F400FFFC0F00000024F40048E8011C
:102950002DE9F041984617460E460446069D08E0CC
:10296000681C06D0FEF72CFCA0EB0800A8420BD890
:1029700055B12068C06936EA000017D00020B8427F
:10298000EED00020BDE8F0812068016821F4D0710C
:1029900001602068816821F001018160202060676A
:1029A000A067002084F870000320EBE70120E6E731
:1029B0000907090E002804DB00F1E02080F800146C
:1029C000704700F00F0000F1E02080F8141D704700
:1029D00002E008C8121F08C1002AFAD170477047E8
:1029E000002001E001C1121F002AFBD17047FEE761
:1029F00010B501210F20FEF7C7F8F0221146012083
:102A0000FEF794F8F12211460120FEF78FF8F2222A
:102A100011460F20FEF78AF8F32211460120FEF737
:102A200085F8F42211460120FEF780F8F5221146C0
:102A30000120FEF77BF8F62211460120FEF776F81A
:102A4000F72211460120FEF771F8F8221146012005
:102A5000FEF76CF8F92211460120FEF767F8FA221A
:102A6000BDE8104011460120FEF760B8FEF7AEFB4E
:102A7000FFF7B6FCFFF7F2FAFFF736FB0E480D49F9
:102A80000C2201604FF4E131416000218160C1609E
:102A9000C0E90412816101624162FFF74BFA00F064
:102AA00027F800221146054800F078FD00F038F8BC
:102AB000FEE700000080004008140020EF29000815
:102AC00010B5FFF7B8FA40B9FFF79AFA28B9EFF353
:102AD000148040F30000401C02D00348007A10BD6F
:102AE000DFF808C000DF10BD64130020D5350008F2
:102AF00010B500F0DBF8FEF715F9FFF79CFA10B9F6
:102B0000FFF77EFA30B16FF005042046FEF704F9B6
:102B1000204610BDDFF804C000DF10BDE13500081D
:102B200010B5FEF70FF9FFF786FA10B9FFF768FA4C
:102B300030B16FF005042046FEF7EEF8204610BDD8
:102B4000DFF804C000DF10BD193700082DE9F0419F
:102B50001F4616460D460446FEF75EF9FFF771FA6A
:102B600010B9FFF756FA68B324B12078FA2801D1DA
:102B700005B137B16FF0030529462046FEF746F947
:102B80001DE02046FFF7DAFA070012D007F10C012A
:102B90002846626AFDF77CFE0EB1F8783070384640
:102BA000FC6000F03DFA29462046FEF7A1F9002519
:102BB00005E029462046FEF773F96FF00205284626
:102BC000BDE8F0812046294632463B46DFF804C086
:102BD00000DFF5E7B937000870B514460D46064624
:102BE000FEF74AF9FFF72DFA10B9FFF712FA30B1E4
:102BF0006FF005010020FEF709F9002070BD304696
:102C000029462246DFF804C000DF70BDC538000841
:102C10002DE9F0411E4617460D460446FEF748F9D9
:102C2000FFF70FFA10B9FFF7F4F988B324B1207851
:102C3000FA2801D105B136B16FF0030529462046C7
:102C4000FEF7E4F821E004F10C0000F0BBF8060008
:102C500015D0294606F10C00626AFDF719FEF9202D
:102C600030700020B070F770C6E90154304600F0B3
:102C7000D7F929462046FEF7EFF8002505E029465A
:102C80002046FEF705F96FF002052846BDE8F08101
:102C9000FFE7204629463A463346DFF808C000DF02
:102CA000F4E70000FD390008FEE7FEE710B5FFF786
:102CB00007FF002803D1BDE81040FFF799BE10BD03
:102CC0002DE9F041040014D099B1900811D101F11F
:102CD0000F0020F0070304F10800056847682E1A6A
:102CE00027F00307F61B9E420AD228462D68002DC6
:102CF000F3D100232046FEF735F80020BDE8F0812F
:102D000066681E4466602568083D25446F68B742C2
:102D100000D26E60456875B125F003050544134384
:102D20000668C5E90063056008352B462046FEF7B6
:102D300019F82846E2E7134300F108054360F4E779
:102D400070B5C8B1C1B1A1F10802002400F10803B7
:102D500002E01C461B687BB19342FAD15E6845686D
:102D600026F00306AD1B45605CB11A6822600122A3
:102D7000FEF724F8012070BD0022FEF71FF80020A6
:102D800070BD00225A60F2E770B528B1420703D146
:102D90004A0701D1182904D20022FEF71BF80020AF
:102DA00070BDA1F10803034410248360C0E900143E
:102DB00000251D60836801225C60C560FEF70AF88B
:102DC000012070BD70B504000ED004F11400FDF7B1
:102DD00070FA050002D0201DFDF723FA294620468F
:102DE000FDF7CCFF284670BD00210846FDF7C6FF61
:102DF000002070BD70B504000D4605D0E068A84203
:102E000002D82069A84207D86FF003063246204650
:102E1000FDF7BCFF304670BD04F11400FDF756FA13
:102E2000201DFDF723FA002229462046FDF7AEFFBC
:102E3000002070BD2DE9F0411C4616460D4688B1B4
:102E400085B17EB174B1C0E9026405FB0641C0E9F9
:102E500004140027C0E90057234632462946FDF7EF
:102E6000A1FF05E00020BDE8F081A0192060044624
:102E70006D1EFAD101202760F5E72DE9F0410446E7
:102E800080780026B8B3E56821462846FFF789F91F
:102E90002670214605F10C00B0460446FFF7AAFF54
:102EA000A86800285DD02046FFF78CFF040058D0AA
:102EB000284600F001FA00220646114600F0BAFA50
:102EC000304600F04BFA86680746314604F10C00A4
:102ED0006A6AFDF7DDFCF920207084F80280387BF7
:102EE000E07021462846FFF73DF931462846BDE807
:102EF000F041FDF7B9BFD4E90115A86810B14078D9
:102F0000832808D02846FDF7AFFF21462846BDE8B4
:102F1000F041FFF727B92846FDF7A6FF284600F045
:102F2000CBF900220746114600F084FA384600F03B
:102F300015FA0746806804F10C0180466A6AFDF7BD
:102F4000A7FCF86808B1E178017041462846FDF712
:102F5000CFFF2670214605F10C00BDE8F041FFF7D8
:102F600049BFBDE8F0812DE9F0410446002721E08A
:102F7000E078666900071CD5277600212046FDF71A
:102F8000CFFFA068A8B1204600F096F900220546C0
:102F9000114600F04FFAC4E90357E86A6061E86A35
:102FA00000B104610120EC62207601462046FDF765
:102FB000AFFF3446002CDBD1BDE8F08170B5174C73
:102FC00004F15605B4F854602846FDF7ADFAF8B19F
:102FD000124831465A30FDF784FAE16D51F820006D
:102FE000B0B10178F1390929ECD2DFE801F006052A
:102FF0000805050A0C050E00E4E7216E06E0616E87
:1030000004E0A16E02E0E16E00E0216F8847D9E79D
:10301000BDE87040002000F0F7B800006413002005
:1030200070B5114C054604F15600B4F854603146B1
:10303000FDF748FAB0420CD2314604F15800FDF7D2
:1030400050FAE16D41F82050607A40B10120A07241
:1030500070BD2946BDE870400220FFF725BE034938
:103060004FF08050086070BD6413002004ED00E054
:1030700030B401210A4A417090F92030516A1C3263
:1030800001E00A46896819B191F920409C42F8DCB8
:10309000C0E90212906001B1C86030BCFDF7A2BF68
:1030A0006413002030B5154C4A1C02D00023E26A9C
:1030B00012E00022236B01E01A461B69002BFBD1B2
:1030C000C1610021C0E904120AB1106130BD206362
:1030D00030BD13461269491B12B1D5698D42F8D92A
:1030E000C161C0E904230BB1186100E0E062002A6D
:1030F000EED0D369591AD161506130BD64130020FC
:1031000030B5C2690F4C0169551C4FF0000309D05E
:1031100029B1CD692A44CA61D0E904124A614169E2
:1031200029B90BE009B142694A61416919B10269E3
:103130000A61436130BD0069206330BD0069E0620F
:1031400030BD00006413002070B52E4DEC6A002CD9
:1031500057D0E069401EE06153D16078632824D0E5
:1031600008DC13280DD033280FD0432811D0532862
:1031700032D114E073281ED0832822D093282BD17B
:1031800025E02046FDF7B8FD26E02046FDF70EFFBE
:1031900022E0204600F0B8F8FDF7B6FD1CE020461E
:1031A00000F0B2F8FDF7ACFE16E0204600F0ACF8F7
:1031B000FDF7BEFE10E0204600F0A6F8FDF716FE73
:1031C0000AE0204600F0A0F8FDF73EFE04E02046AD
:1031D00000F09AF8FDF784FE204600F0BFF8016881
:1031E0002046FDF70FFF204600F082F8204600F051
:1031F000ADF8246924B1E0690028AED000206061F8
:10320000EC6270BD6413002010B515490400087A03
:103210004B6902D002280FD01CE04C6A02281ED154
:10322000002C1CD094F9200093F92010884216DD60
:10323000204600F05DF805E094F9200093F9201095
:10324000884207DD1846FFF713FF2046BDE810400F
:1032500000F0C0B82046BDE8104000F077B810BDBF
:103260006413002070B50446002060702070A078C0
:10327000104D81070AD5216BC00604D5D5F884000E
:10328000FFF7B8FD02E0686FFFF75AFDA078C007AE
:103290000ED0D5F8880020B12146BDE87040FFF778
:1032A000A9BD2146D5F88000BDE87040FFF748BDB4
:1032B00070BD00006413002081688A6882608A689B
:1032C00002B1D0600020C8600846704710B591F97F
:1032D000203082682AB192F920409C4201DB1046DE
:1032E000F7E7C1E902208160002A00D0D16010BD5B
:1032F000C168002907D082688A60816809B1C26804
:10330000CA600021C160704700E0C0680178F129FF
:10331000FBD0704770B504464078332815D194F837
:1033200023202046616AFFF734F905000DD00146DD
:103330000022204600F07EF894F8231023462A4607
:10334000606ABDE87040FDF725BE70BD0121417087
:1033500001460148FFF7BABF80130020816B90F847
:103360002200C00601D4602000E0202008447047FD
:103370000748416900290AD08A6B086B824203D949
:103380000068044A904202D00120FFF78DBC7047CC
:1033900064130020A52E5AE270B50A4E01240021C4
:1033A0000948B26D00F0DCFB084DA862706E38B1C0
:1033B00000210748F26D00F0D3FBA86400B9002497
:1033C000204670BD043E0008AB2C000864130020AA
:1033D000DD34000810B504460220607004488461A2
:1033E000FFF7C6FF2046BDE81040FDF703BE000012
:1033F0006413002070B505460D480E46017A022977
:1034000013D1416A89B1446931462046FDF798FDE0
:10341000657031462046FFF745FE05481C30FFF732
:103420004BFFFFF7D7FF012070BD002070BD0000EB
:103430006413002070B514460D460646FDF7E2FD04
:103440003046FFF78BFF05603046FFF759FE3046E8
:103450001CB1BDE87040FFF7D7BEBDE87040FFF774
:1034600075BF000070B5FEF7AAFE1B4CE068401C5B
:10347000E060206D00B18047FFF766FE0020FFF797
:10348000C3FE206C002805D0A269A16B914202D036
:10349000C4E90E2070BDE06B10B1401EE063F9D1AD
:1034A000207A0228F6D1656A002DF3D095F9200024
:1034B00091F920108842EDD12846FFF719FFA06B43
:1034C000FFF744FFA06BFDF78DFD2846FFF782FF55
:1034D000A563206CE06370BD641300201CB50E482A
:1034E0000821D0E91820FFF777FB0C4C4FF0FF358F
:1034F000E0640B4820652B4600226946E06CFFF72C
:1035000025FB0028F7D1DDE90001FDF783FDDDE9AA
:1035100000108847EFE70000043E00086413002015
:103520002535000870B5154D6C6C002C20D0206935
:10353000401E20611AE0E06808B1A1688160E0687F
:10354000686400231A4604F11801E86CFFF760FB79
:1035500018B121460320FFF7A7FBE078012808D027
:10356000012060706C6C002C02D020690028E2D031
:1035700070BD20466169FFF723F8F3E7641300206C
:10358000FDF700FDDFF810C000DF4FF0FF31002035
:10359000FDF7F2FCFEE70000ED3A000870B51446B6
:1035A0000D460646FDF712FDFEF751FD10B9FEF778
:1035B00039FD30B16FF005010020FDF7DDFC002082
:1035C00070BD304629462246DFF804C000DF70BDDA
:1035D000613B00080148007A704700006413002036
:1035E00070B54B4D287A012807D050B14FF0FF3409
:1035F0002046FDF791FB204670BDFDF79BFB0020A8
:1036000070BD43489C210830FDF75BF9414CE068F0
:10361000E865208AA5F85400A0682864D4E90B0165
:10362000FFF7B2FB10B1E06AC5F88000D4E90501EC
:10363000FFF7AAFB08B1606901E0D5F88000686770
:10364000D4E90701FFF7A0FB08B1E06901E0D5F874
:103650008000A867D4E90901FFF796FB08B1606A0A
:1036600001E0D5F88000E867606B38B1D0E902234B
:103670000168FFF7DFFB606BC5F88400A06B38B111
:10368000D0E902230168FFF7D5FBA06BC5F88800DD
:10369000E06B38B1D0E902230168FFF7CBFBE06BA8
:1036A000C5F88C00206C38B1D0E902230168FFF71F
:1036B000C1FB206CC5F89000606C38B1D0E90223E2
:1036C0000168FFF7B7FB606CC5F89400A06C38B1D7
:1036D000D0E902230168FFF7ADFBA06CC5F89800A4
:1036E000E06C38B1D0E902230168FFF7A3FBE06C7E
:1036F000C5F89C00206D38B1D0E902230168FFF7BE
:1037000099FB206DC5F8A0000120287275E7000024
:1037100064130020043E000870B5234D4FF0FF34C1
:10372000287A012801D0A01F21E0FFF735FEE8B17B
:103730001E48FF210170007860F0FF00C043B0FA1E
:1037400080F0C0F12001194816380068C0F3022249
:103750008A4200D3511CFE2088401449C91E0870BB
:10376000134E14497068FEF747FD20B12046FDF75F
:10377000D3FA204670BDFEF73BFD2861FEF724FD1D
:1037800009481C30FFF798FDFFF724FE3078C0078A
:1037900001D0022000E0032080F314880220287268
:1037A000FDF7D8FA002070BD6413002022ED00E080
:1037B000043E0008DD0700082DE9F0419846164652
:1037C0000F46040050D02078FA284DD1F7B3204698
:1037D000FEF7B4FC05004FD001462046FEF7E1FCA1
:1037E00005F10C013846626AFDF752F80EB1E8782F
:1037F000307039462046FDF77BFB4FF0000885F816
:103800000080294604F10C000546FFF7F3FAA06892
:1038100038B32846FFF7D6FA050022D02046FFF736
:103820004BFD064601220021FFF704FE3046FFF75C
:1038300095FD86680746314605F10C00626AFDF782
:1038400027F8F920287085F8028000E00CE0387B2A
:10385000E87029462046FEF785FC31462046FDF7F4
:1038600003FB0020BDE8F0816FF0030529462046E8
:10387000FDF7CCFA2846F5E7B8F1000019D002466A
:1038800039462046FDF7D4FA41468320FFF7B2FDC2
:1038900048B10B4841692046FFF718FDEFF3098056
:1038A000C0E9027602E02046FDF7CEFA6FF0010093
:1038B000D8E739462046FDF7F3FA6FF00200D1E76A
:1038C000641300202DE9F84F894606006FF00301CC
:1038D0002ED0B9F1000F2BD009F1030020F0030026
:1038E00000F10C08B6FA86F3B8FA88F018442028DC
:1038F0001ED306FB08F0DFF8F4B00090F2B1D2E975
:103900000450D2F800A09468491F2CB1A3070FD12E
:10391000D268342A0CD301E0D2684AB96FF00901A9
:103920002DB1AA0704D1009A904201D30AE048B110
:103930000020FDF76BFA002000F05CB84FF0000AA1
:10394000554603E014B1002795B11EE0DBF8A01046
:1039500019B10846FFF736FA05E001223421DBF8F9
:103960008000FFF7ADF904004FF00107ECD135E01E
:103970000022DBF87C000099FFF7A2F905001DD0BA
:103980000099FCF79EFF47F00207FA202070A7700D
:103990000020C4E901A0C4E90990E06220632B463D
:1039A0004246314604F10C00FFF744FA1049CBF8C7
:1039B000701020466168FDF721FA14E0F8070CD07A
:1039C000DBF8A02022B121461046FFF713FA04E0ED
:1039D0002146DBF88000FFF7B3F900246FF0040103
:1039E0000020FDF713FA2046A6E70000641300202C
:1039F0007B2E000818BCBDE8E08F00002DE9F041E7
:103A0000984616460F46040024D02078FA2821D183
:103A100007B3A06810B14078832823D004F10C00CC
:103A2000FFF7D0F905003AD0394605F10C00626A7B
:103A3000FCF72EFFF92028700020A870EE702946B0
:103A40002046FEF78FFB39462046FDF70DFA002091
:103A5000BDE8F0816FF0030529462046FDF7D6F951
:103A60002846F5E72046FDF7FFF92046FFF724FC3E
:103A7000054601220021FFF7DDFC2846FFF76EFC1A
:103A80000546806839468046626AFCF701FFE868AF
:103A900000B1067041462046FDF72AFAD7E7B8F193
:103AA000000019D0024639462046FDF70DFA41467E
:103AB0009320FFF79FFC48B10B4841692046FFF770
:103AC00005FCEFF30980C0E9027602E02046FDF72D
:103AD00007FA6FF00100BBE739462046FDF7D8F939
:103AE0006FF00200B4E700006413002070B51B4DB6
:103AF000287A022830D1686A00282DD06C69E06AE3
:103B0000FFF731FAA06930B100221146FFF792FCAD
:103B1000A069FDF753FAEFF30980A0630F481C304A
:103B2000FFF7CAFBFFF756FC00206861E078C0078A
:103B30000ED0042060700020E060686BA060686BAD
:103B400000B1C4606C632046BDE87040FDF70CBA5C
:103B50002046FFF787FBF6E770BD000064130020E6
:103B60002DE9F74F82B05FEA000B10D0DFF8A89183
:103B70005AB310680090D2E90560D2E901A4156932
:103B800080466FF008014CB1A00728D102E06FF029
:103B9000030124E0D068442821D301E0D068F0B9C3
:103BA0006FF00A0115B1680719D1C6B15FEA0800C4
:103BB00005D0401E382804D36FF00B010FE04FF002
:103BC00018089EB170070AD107E00020824605461A
:103BD00006464FF0180800900CE0482E06D2002050
:103BE000FDF7CAF9002005B000F0A0B814B1002715
:103BF00095B129E0D9F8881019B10846FFF7E2F825
:103C000005E001224421D9F88000FFF759F80400AB
:103C10004FF00107ECD178E066B94048D9F884103C
:103C2000466D39B10846FFF7CDF805005DD047F085
:103C3000100707E000223146D9F87400FFF740F87A
:103C4000051E52D047F00207F1202070012060705D
:103C5000A77084F803A0009860600020A060E06076
:103C600020616061A061E06184F8208084F8218097
:103C7000FD2184F8221084F823006062A919C4F899
:103C80003CB04039A062C4E90D61C4E90B05244988
:103C900029602249097849070AD56FF0100111EB14
:103CA000960105D04FF0CC3245F8042F491EFBD1C8
:103CB000A16B002241F82200521C0D2AFAD11948AA
:103CC000C1E90D0B4FF08070C86303980862164974
:103CD000C9F8601020466268E16BFDF739F914B14C
:103CE0002046FFF791FA20467DE7F8070CD0D9F877
:103CF000882022B121461046FFF77CF804E02146D7
:103D0000D9F88000FFF71CF800246FF004010020B0
:103D1000FDF732F9E7E7000064130020043E0008D5
:103D2000A52E5AE2813500081533000830BCBDE8E5
:103D3000C08F00000000000000000000C410002040
:103D400044000000501100200001000001000000AC
:103D50000000000000000000000000000000000063
:103D60000811002044000000501200200001000053
:103D7000280000000000000000000000000000001B
:103D800000000000401000203400000074100020EB
:103D90005000000000000000010001018000000050
:103DA00000F0002000F8002080F800200000000053
:103DB00000000000000000000102030406070809DB
:103DC000A0860100400D0300801A060000350C009B
:103DD00040420F0080841E0000093D0000127A005E
:103DE0000024F40000366E010048E801006CDC029B
:103DF00000000000010203045254582056352E35AD
:103E00002E31000003000000E80300000500000060
:103E10000010002010000000000000000000000062
:103E20000000000000000000000000000000000092
:103E30000000002000100000000000000000000052
:103E40000000000000000000000000000000000072
:103E5000000000000000000000010000343D0008E8
:103E6000583D00087C3D000804000000C4100020FC
:103E70004C110020000000000000000000000000C5
:103E80000000000000000000000000000000000032
:103E900000000000000000000000000040100020B2
:103EA00074100020C43E0008000000200814000028
:103EB0003C090008003F000808140020C00400006E
:103EC000E029000801FF01FF01FF01FF01FF01FFE1
:103ED00001FF01FF01FF01FF01FF01FF01FF01FFE2
:103EE00001FF01FF01FF01FF01FF01774210D20135
:103EF0000C9D093D00F83D0008D1B3FB0200000015
:040000050800018D61
:00000001FF
